{
  "contractName": "Consumer",
  "abi": [
    {
      "inputs": [
        {
          "internalType": "address",
          "name": "_oracleAddress",
          "type": "address"
        }
      ],
      "stateMutability": "nonpayable",
      "type": "constructor"
    },
    {
      "inputs": [],
      "name": "oracle",
      "outputs": [
        {
          "internalType": "contract IOracle",
          "name": "",
          "type": "address"
        }
      ],
      "stateMutability": "view",
      "type": "function",
      "constant": true
    },
    {
      "inputs": [],
      "name": "foo",
      "outputs": [],
      "stateMutability": "view",
      "type": "function",
      "constant": true
    }
  ],
  "bytecode": "0x608060405234801561001057600080fd5b506040516106ad3803806106ad833981810160405281019061003291906100db565b806000806101000a81548173ffffffffffffffffffffffffffffffffffffffff021916908373ffffffffffffffffffffffffffffffffffffffff16021790555050610108565b600080fd5b600073ffffffffffffffffffffffffffffffffffffffff82169050919050565b60006100a88261007d565b9050919050565b6100b88161009d565b81146100c357600080fd5b50565b6000815190506100d5816100af565b92915050565b6000602082840312156100f1576100f0610078565b5b60006100ff848285016100c6565b91505092915050565b610596806101176000396000f3fe608060405234801561001057600080fd5b50600436106100365760003560e01c80637dc0d1d01461003b578063c298557814610059575b600080fd5b610043610063565b6040516100509190610271565b60405180910390f35b610061610087565b005b60008054906101000a900473ffffffffffffffffffffffffffffffffffffffff1681565b6000604051602001610098906102e3565b60405160208183030381529060405280519060200120905060008060008060009054906101000a900473ffffffffffffffffffffffffffffffffffffffff1673ffffffffffffffffffffffffffffffffffffffff166354f6127f856040518263ffffffff1660e01b815260040161010f9190610311565b606060405180830381865afa15801561012c573d6000803e3d6000fd5b505050506040513d601f19601f82011682018060405250810190610150919061039f565b925092509250600115158315151461019d576040517f08c379a00000000000000000000000000000000000000000000000000000000081526004016101949061044f565b60405180910390fd5b6078426101aa919061049e565b8210156101ec576040517f08c379a00000000000000000000000000000000000000000000000000000000081526004016101e390610540565b60405180910390fd5b50505050565b600073ffffffffffffffffffffffffffffffffffffffff82169050919050565b6000819050919050565b600061023761023261022d846101f2565b610212565b6101f2565b9050919050565b60006102498261021c565b9050919050565b600061025b8261023e565b9050919050565b61026b81610250565b82525050565b60006020820190506102866000830184610262565b92915050565b600081905092915050565b7f4254432f55534400000000000000000000000000000000000000000000000000600082015250565b60006102cd60078361028c565b91506102d882610297565b600782019050919050565b60006102ee826102c0565b9150819050919050565b6000819050919050565b61030b816102f8565b82525050565b60006020820190506103266000830184610302565b92915050565b600080fd5b60008115159050919050565b61034681610331565b811461035157600080fd5b50565b6000815190506103638161033d565b92915050565b6000819050919050565b61037c81610369565b811461038757600080fd5b50565b60008151905061039981610373565b92915050565b6000806000606084860312156103b8576103b761032c565b5b60006103c686828701610354565b93505060206103d78682870161038a565b92505060406103e88682870161038a565b9150509250925092565b600082825260208201905092915050565b7f636f756c64206e6f742067657420646174610000000000000000000000000000600082015250565b60006104396012836103f2565b915061044482610403565b602082019050919050565b600060208201905081810360008301526104688161042c565b9050919050565b7f4e487b7100000000000000000000000000000000000000000000000000000000600052601160045260246000fd5b60006104a982610369565b91506104b483610369565b9250827fffffffffffffffffffffffffffffffffffffffffffffffffffffffffffffffff038211156104e9576104e861046f565b5b828201905092915050565b7f6461746120746f6f206f6c6420746f20636f6e73756d65000000000000000000600082015250565b600061052a6017836103f2565b9150610535826104f4565b602082019050919050565b600060208201905081810360008301526105598161051d565b905091905056fea26469706673582212208c99715fc683e54b48d1c8a1e3b1d12741c289e1ce7c0a5af6af62cef6bb845864736f6c634300080a0033",
  "immutableReferences": {},
  "source": "// SPDX-License-Identifier: MIT\npragma solidity >=0.8.0 <0.9.0;\nimport \"./IOracle.sol\";\n\ncontract Consumer {\n    IOracle public oracle;\n\n    constructor(address _oracleAddress) {\n        oracle = IOracle(_oracleAddress);\n    }\n\n    function foo() external view {\n        bytes32 key = keccak256(abi.encodePacked(\"BTC/USD\"));\n        (bool result, uint256 date, uint256 data) = oracle.getData(key);\n        require(result == true, \"could not get data\");\n        require(date >= block.timestamp + 2 minutes, \"data too old to consume\");\n        // do something with price\n    }\n}\n",
  "sourcePath": "/Users/chandra/Music/blockchain/defi-series/pull-based-oracle/contracts/Consumer.sol",
  "compiler": {
    "name": "solc",
    "version": "0.8.10+commit.fc410830.Emscripten.clang"
  },
  "schemaVersion": "3.4.3",
  "updatedAt": "2022-07-18T02:51:47.728Z",
  "networkType": "ethereum",
  "devdoc": {
    "kind": "dev",
    "methods": {},
    "version": 1
  },
  "userdoc": {
    "kind": "user",
    "methods": {},
    "version": 1
  }
}